:1000000000000320D1010000C94D0000814D000017
:10001000814D0000814D0000814D0000814D0000A8
:10002000814D0000814D0000814D0000C94D000050
:10003000C94D0000814D0000996200009D620000E2
:10004000C94D0000C94D0000C94D0000C94D000058
:10005000C94D0000C94D0000C94D0000C94D000048
:10006000C94D0000C94D0000C94D0000C94D000038
:10007000C94D0000C94D0000C94D0000C94D000028
:10008000C94D0000C94D0000C94D0000C94D000018
:10009000C94D0000C94D0000C94D0000C94D000008
:1000A000D1170000DD170000C94D0000C94D000048
:1000B000C94D0000C94D0000C94D0000C94D0000E8
:1000C000C94D0000C94D0000C94D0000C94D0000D8
:1000D000C94D0000C94D0000C94D0000C94D0000C8
:1000E000C94D0000C94D0000C94D0000C94D0000B8
:1000F000C94D0000AD3E0000C94D0000C94D0000D3
:10010000C94D0000C94D0000C94D0000C94D000097
:10011000C94D000059530000C94D0000C94D0000F1
:10012000C94D0000C94D0000C94D0000C94D000077
:10013000C94D0000C94D0000C94D0000C94D000067
:10014000C94D0000C94D0000C94D0000C94D000057
:10015000C94D0000C94D0000C94D0000C94D000047
:10016000C94D0000C94D0000E9170000C94D00004D
:10017000C94D0000C94D0000C94D0000C94D000027
:10018000C94D0000C94D0000C94D0000C94D000017
:10019000C94D0000C94D0000C94D0000C94D000007
:1001A000C94D0000C94D0000C94D0000C94D0000F7
:1001B000C94D0000C94D0000C94D0000C94D0000E7
:1001C000C94D0000C94D0000C94D0000C94D0000D7
:1001D0005C4B4CF2205210B51A804DF628121A8052
:1001E00000BF00BF04F0F4FD574B4FF030621A60BF
:1001F000564A9A60564ADA60564B4FF470021A60BB
:10020000554B564A1A60564B1A78110703D51A787F
:1002100042F008021A70534B5349AA221A70534AEB
:10022000534B8B4204D252F8040F43F8040BF8E707
:10023000504B514900228B4202D243F8042BFAE77B
:100240004E494F4A002352F8230041F8230001335E
:10025000742BF8D14B4B4C4A802103F8011B93427D
:10026000FBD14A4B454A1A60494B8A221A70A3F5C2
:10027000805324225A70A0221A709A799207FCD5D2
:100280009A79D406FCD4434A937903F00C03082BE3
:10029000FAD1414B60221A7002331A78802AFCD1BD
:1002A0003C4B01221A715D225A719A799006FCD555
:1002B0009979384A4906FBD5384B394919600021EC
:1002C000596020231370937903F00C030C2BFAD19F
:1002D000344B354A1A60354A354C136813F4807331
:1002E00003D123604FF4A8531360324B324A1A6093
:1002F00000225A60072243F8042C304AC3F80C2D20
:1003000062B604F099FE2368DA0705D52C4804F09C
:1003100015FE2C4B2C4A1A602C4B1B785B0609D51A
:10032000284C294B22689A4204D1254804F006FE45
:100330000023236006F09EF904F050FD06F024F837
:10034000FEE700BF0E20054030800440823F0400DD
:100350000100002B88ED00E0002008E0030000858C
:1003600002D0074000E007408C11FF1F409F0000B3
:100370003007FF1F8C11FF1FBC15FF1F0002FF1F5E
:100380000000000000E400E064E400E008ED00E0AC
:10039000005006400040064001E007404480044011
:1003A0000000060204800440C010070010D0034083
:1003B00014D0034014E000E01FBF02000000202022
:1003C000CFAB6B601CE00340A5C3945A00F007401C
:1003D000FFFFFFFFFFFFFFFFFFFFFFFFFFFFFFFF2D
:1003E000FFFFFFFFFFFFFFFFFFFFFFFFFFFFFFFF1D
:1003F000FFFFFFFFFFFFFFFFFFFFFFFFFFFFFFFF0D
:10040000FFFFFFFFFFFFFFFFFFFFFFFFDEF9FFFF23
:1004100010B5054C237833B9044B13B10448AFF33E
:1004200000800123237010BD8C11FF1F000000000D
:10043000449F0000084B10B51BB108490848AFF3B2
:1004400000800848036803B910BD074B002BFBD0A0
:10045000BDE81040184700BF000000009011FF1FCA
:10046000449F00008C11FF1F0000000020B90122F2
:100470000721044801F038BA00220721014801F0A1
:1004800033BA00BF8012FF1F2DE9F04F0C68844281
:1004900085B000F0158115460E462B6800212322F9
:1004A0000191009204461F6C11229F2301212846CE
:1004B000B847002C00F0CA8001220721A04801F0B3
:1004C00013FAA04BD3ED007AFCEEE77A632CCDED66
:1004D000027A00F3AE81092CCCBF37214421BDF84C
:1004E0000830AB8232226B822A82E98128460121C0
:1004F00002F06CFB2146284605F03EFF284605F039
:10050000EBFE13219048DFF868B205F09FFD21460D
:100510008E4805F031FF01218D4805F097FD1F2C15
:10052000CCBF012300238BF8003040F38B81A4F172
:100530002009012120258548DFF838A205F01CFF9D
:10054000824805F0C9FEB9F10F0FCCBF012200228D
:100550008AF8002040F36F81A9F11009B9F1070F63
:1005600005F11005D4BF002701270121794B7748F9
:10057000029305F001FF754805F0AEFE754B734818
:100580001F70754B0393B9F1070F3946C4BF083587
:10059000A9F108091F4605F0EFFE6C4805F09CFE26
:1005A000B9F1030FCCBF012100213970C4BF04355C
:1005B000A9F104096548DFF8C081684F05F0DCFE49
:1005C000624805F089FEB9F1010FCCBF012100217D
:1005D0005E4888F80010C4BF0235A9F1020905F091
:1005E000CBFE5A4805F078FEB9F1000FCCBF0121CF
:1005F000002156483970C8BF013505F0BDFE53488B
:1006000005F06AFE0921564805F020FD29464F48AD
:1006100005F0B2FE4D4805F05FFE0C21514805F093
:1006200015FD2146494805F0A7FE484805F054FE4F
:100630000A214D4805F00AFD33689C4200F39E8074
:100640009C4243DB346005B0BDE8F08F414B029320
:100650001D46414B3A480393224607211F4601F0AD
:1006600043F913213848DFF808B1DFF808A105F095
:10067000EDFC2146354805F07FFE0121344805F0A8
:10068000E5FC214631488BF8004005F075FE2F4807
:1006900005F022FE21462D488AF8004005F06CFE48
:1006A0002A4805F019FE214628482C7005F064FE02
:1006B000264805F011FE25463C702146A14679E703
:1006C000002B7FF4E8AE05B0BDE8F08F1A21274873
:1006D00005F0BCFC1D4805F0FFFD9BF80020002A3A
:1006E00000F0988001220021154801F0FDF89AF8E9
:1006F0000020002A40F097800121114801F0F4F811
:10070000029B1A7802B1012202210D4801F0ECF897
:10071000039B1A7802B101220321094801F0E4F891
:1007200098F8002002B101220421054801F0DCF80C
:100730003A7802B101220521014801F0D5F881E79C
:100740008012FF1F3007FF1FC47000009408FF1FB6
:10075000D8700000BE11FF1FBD11FF1F7912FF1FCF
:10076000DC700000E8700000F870000020710000EC
:10077000BF11FF1F8812FF1FBC11FF1F1A21334832
:1007800005F064FC324805F0A7FD3A78002A3FD115
:100790000521304801F0A8F898F80020002A35D14A
:1007A00004212C4801F0A0F8039B1A7862BB0321B6
:1007B000284801F099F8029B1A781ABB02212548B3
:1007C00001F092F89AF800206AB1012211462148FE
:1007D00001F08AF89BF800206AB911461D4801F023
:1007E00083F833682CE701211A4801F07DF89BF863
:1007F0000020002AF1D001220021164801F074F8EF
:1008000033681DE70122D9E70122D0E70122C7E7BB
:100810000122BDE711460F4801F066F89AF8002062
:10082000002A3FF469AF012211460A4801F05CF842
:1008300066E72A2153E6B9F1070FD4BF0027012745
:10084000002193E600210D46A14674E604710000E4
:100850009408FF1F8012FF1FF0B585B005460E46B5
:1008600003921C46FFF702FE002D2FD1404F224677
:100870003046012303A93D70FFF706FE06213D48DF
:1008800005F0E4FB3C4B3D48197805F075FD3C4B09
:100890003A48197805F070FD3A4B3848197805F058
:1008A0006BFD394B3548197805F066FD374B3348F9
:1008B000197805F061FD364B3048197805F05CFD7C
:1008C0000121344805F0C2FB05B0F0BD2268284B79
:1008D00000202321019000910125166C1D702046F7
:1008E000332311223721B0472B4BD3ED007AFCEE96
:1008F000E77A3222CDED027ABDF80830A3820A20D1
:1009000063822946E0812282204602F05FF9236853
:1009100022495B68042220469847204605F0DCFC0B
:1009200004211E4805F092FB134B1448197805F07A
:1009300023FD134B1148197805F01EFD114B0F488C
:10094000197805F019FD104B0C48197805F014FDC5
:100950000E4B0A48197805F00FFD0D4B0748197822
:1009600005F00AFD29460B4805F070FB05B0F0BD07
:10097000D511FF1F447100007912FF1F9408FF1F5B
:10098000BC11FF1FBD11FF1FBE11FF1F8812FF1FEB
:10099000BF11FF1FD87000003007FF1F3C7100001F
:1009A00070B50D4684B0144693B90B68022B00F065
:1009B000B180032B00F0C280012B00F0B58000282D
:1009C00014BF012303230B6061480F2105F03EFB98
:1009D0002D68604E022D00F08280032D64D0012D21
:1009E00047D05D4B5D4833600022012100F07CFF61
:1009F00000220221594800F077FF002203215748C6
:100A000000F072FF00210122544800F06DFF0F2119
:100A10004F4805F01BFB236800212422019100921E
:100A20001D6C20469F2347220121A8474C4BD3ED44
:100A3000007AFCEEE77A6922CDED037ABDF80C303E
:100A4000A3820D2163822282E1812046012102F0EE
:100A5000BDF83568284606F013F923680246294692
:100A60005B6820469847204604B0BDE8704005F01A
:100A700033BC00223B4B39483360114600F034FF51
:100A800000220221354800F02FFF002203213348C5
:100A900000F02AFF29462A46304800F025FF0F21A2
:100AA000314805F0D3FAB6E70022304B2B483360CB
:100AB000114600F019FF00220121284800F014FF20
:100AC00000220221254800F00FFF29460122234879
:100AD00000F00AFF0F21264805F0B8FA9BE7002234
:100AE000244B1E483360114600F0FEFE0022012117
:100AF0001A4800F0F9FE00220321184800F0F4FE25
:100B000029460122154800F0EFFE0F211A4805F092
:100B10009DFA80E7002814BF032301230B601648C9
:100B20000F2105F093FA53E7002814BF0223002396
:100B30000B600D480F2105F089FA49E7002814BF22
:100B4000002302230B600A480F2105F07FFA3FE7DC
:100B50007C7100003807FF1FA0710000C011FF1F4B
:100B60003007FF1F8C7100004C7100009C71000069
:100B70006C710000947100005C71000070B582B06F
:100B80000B4E0C4D0C481E221B2300240192009397
:100B90001D221C231F2134602C6002F0A3FF074B91
:100BA0000748196802B0BDE8704003F029BA00BFD9
:100BB0008012FF1FC011FF1FE011FF1F3C07FF1F26
:100BC0006812FF1F2DE9F041624B634D1878DFF882
:100BD000B481624C624E634F82B0002104F0D4F9BC
:100BE000614B0021187804F0CFF9424628462021B5
:100BF00000F000FE28460122002100F055FE0122EF
:100C00001146284600F050FE28460122022100F03D
:100C10004BFE28460122032100F046FE2846012211
:100C2000042100F041FE28460122052100F03CFE8F
:100C300028460122062100F037FE2846012207211E
:100C400000F032FE42462046012100F0D3FD20464E
:100C50000122002100F028FE01221146204600F06A
:100C600023FE20460122022100F01EFE2046012222
:100C7000032100F019FE20460122042100F014FE99
:100C800020460122052100F00FFE20460122062108
:100C900000F00AFE20460122072100F005FE334B3A
:100CA00033491868DFF8E08032460023FFF7ECFB99
:100CB0003878002104F068F92E4B0021187804F0F0
:100CC00063F93046022102F027FFD8F80030019383
:100CD00030460021019B01F0EDFBD8F80030009375
:100CE00030460321009B02F06DFE3046224901F0A0
:100CF00075FF224803F08CF920460022012100F004
:100D0000F3FD20460022022100F0EEFD20460022E5
:100D1000032100F0E9FD20460122002100F0E4FD5E
:100D200028460022072100F0DFFD0022072120468F
:100D300000F0DAFD642004F02DF93046002101F0C6
:100D4000B9FB387804F012F90D4B186002B0BDE819
:100D5000F08100BF3407FF1F8012FF1FC011FF1F6B
:100D6000E011FF1F4407FF1FC811FF1FDC11FF1F09
:100D70007C12FF1F4007FF1FB47000006812FF1FA6
:100D8000AC11FF1FB407FF1F4014FF1FF0B5A74CA5
:100D9000A74883B0214603F0CBF950B3A36840F2D3
:100DA0000142934200F0868040F60142934200F0F7
:100DB000818040F2FA22934240F009819D4D2A68D9
:100DC0009A4202D09C4A0121116040F20A429342A9
:100DD00040F009812A689A4202D0984B01221A6099
:100DE000974B1B68002B7BD1A36891482B6003F0C5
:100DF00059F9944B187804F0B9F8012828D0924E8C
:100E00003368012B24D091489149924A0023036012
:100E10000B701370904B914C1878914D04F0A6F81C
:100E200023682860984204D0854B1B68012B00F092
:100E300092808C4B187804F099F8012874D08A4875
:100E40008A498B4A002303600B70137003B0F0BD16
:100E50007E4A804913680133092BCCBF0120002052
:100E600013600870D6DD7A4B1A78002AD2D1744DFF
:100E70002F6801241C70002F00F08780724E2A60BA
:100E8000002207217B4800F02FFD0022072179482E
:100E900000F02AFD00220721774800F025FD0021FF
:100EA000764801F007FB0321744802F08BFD002314
:100EB0003360AFE75F4D2A689A4202D0624E01224A
:100EC000326040F60B4293427FF47FAF2A689A4229
:100ED00086D06B4B01221A60594B1B68002B83D0C4
:100EE000A36823F40063B3F53F7F00F0D980524E2E
:100EF0003368012B00F0EF80614F504E3B68012BAF
:100F0000336800F0DF80012B7FF46EAF5D4B5B4AEE
:100F100018685D49003018BF01200023FFF740FD2D
:100F200000233B6033605FE7454B1968012986D198
:100F30004D4A13680133632B136040F3E9804B4B38
:100F400019704B4B1A78002A80D14E4901220A6051
:100F50001A7003B0F0BD4D4B1B68002B7FF469AFD6
:100F60004B4B187804F002F82D684A4BA8421868D9
:100F700000F0AC80002801DD0138186000233F4AF2
:100F800045492560FFF780FA53E7224607213A4892
:100F90002C6000F0A9FC394638482B4E01F08AFA43
:100FA0000321364802F00EFD2346344A36492046D6
:100FB000FFF7F6FC374B314A186837492346FFF7ED
:100FC00063FA2B683760002B7FF424AF58E740F6B4
:100FD000FA22934240F08E80164D2A689A4202D03F
:100FE000154A0121116040F60A4293423FF4F2AEE5
:100FF000134A1268002A3FF4F7AE23F4006340F26C
:10100000FE2293427FF46CAF224B18683F28DCBF6E
:1010100001301860214B1A780AB100221A7000239F
:10102000164A1D49FFF730FA5AE700BF4C12FF1F5E
:101030006812FF1F7012FF1FD811FF1F9012FF1FB1
:101040006C12FF1FC811FF1FB011FF1F8C12FF1F72
:101050007812FF1FD411FF1F4407FF1FAC11FF1FA1
:10106000D011FF1F3407FF1F7412FF1FCC11FF1F89
:10107000D611FF1F8012FF1FC011FF1FE011FF1FBD
:10108000B411FF1FB811FF1FA811FF1F9412FF1FFB
:101090004007FF1FDC11FF1F7C12FF1FD511FF1F30
:1010A0001E4B18680028C4BF00F1FF3018601C4BAD
:1010B0001A780AB100221A7000231A4A1A49FFF757
:1010C000E3F914E7012B3FF42BAF1FE73F28DCBF08
:1010D0000130186052E7124B134A18780F49126812
:1010E0000968104B002780F001000097FFF7B4FB60
:1010F000376001E740F20B4293420C4D7FF4E1AEC2
:101100002A689A423FF474AF094A012111606FE7DF
:10111000084B1B78002B7FF414AF97E6DC11FF1F00
:10112000D511FF1FE011FF1F7C12FF1F7012FF1F60
:10113000B411FF1FCC11FF1F0020704790F8392019
:1011400090F83800101A704790F8383090F839202D
:101150009A4205D95A1C034480F83820187E7047FB
:101160004FF0FF30704700BF90F8383090F83920CA
:101170009A4286BF1B18187E4FF0FF30704700BFA1
:10118000704700BF38B50546B0F85E0090B195F8DD
:101190005D301446C3F1210294420CD805F13B00A6
:1011A0001844224603F052FD95F85D30234485F83B
:1011B0005D30204638BD012014462871EEE700BF9F
:1011C000B0F85E306BB190F85D30202B07D8C218B4
:1011D000013380F85D30012082F83B107047012315
:1011E00003710020704700BF0023426980F8383047
:1011F00080F8393080F85C3080F85D3080F85E30FF
:1012000080F85F3006CA30B40D68046943662A432B
:1012100083660A60A370426990F8613016491468C9
:1012200013441D7A5B7B01EBC5051B026D6803F45B
:10123000E06343F064032B6090F8623013449D7CBC
:10124000DB7D01EBC5011B02496803F4E06343F059
:1012500064030B6021685368194205D003692C228E
:101260005A70036904229A71036920225A71036932
:1012700080229A7030BC7047A09C000038B502698B
:10128000D478E4B2E106054624D51023D370630672
:101290001FD504F0040404F0FF03002C5AD0424987
:1012A0006A6E00230B7085F85D30002A66D0904787
:1012B00095F85D30002B61D02B69D0229A702B6994
:1012C00095F83B201A712B69012285F85C200222D7
:1012D000DA7038BD04F0400303F0FF00002BD8D1D2
:1012E0009379DBB203F0600160294ED0937803F06C
:1012F000100303F0FF01B3B114F0010437D195F8E6
:101300005C3095F85D1099424BD9591C2B4485F8F7
:101310005C1093F83B3013712B69D0229A702B69C3
:101320000222DA70D5E785F86010937943F0200344
:1013300093712B6995F839101A791F29D2B2C6D842
:10134000194800780028C2D06818013185F8391092
:101350000276BCE72A6985F83930C02393702B697F
:10136000114A1979012111700222DA70B1E7C02304
:1013700093702B691A790222DA70AAE701220023FE
:1013800085F85D2085F83B3096E703F0DF03937125
:10139000AB6E23B185F8380095F8390098472A6973
:1013A000A4E71471B8E700BF9812FF1F2DE9F047BA
:1013B000374FDFF8E0903B68026982B00646009341
:1013C000DDF8008000214FF49675D3789B065BD53D
:1013D0003B680193019BC8EB03030F2BF5D949B17F
:1013E000102BF2D000209070336980229A7002B0E6
:1013F000BDE8F087726996F8613013440521187AC8
:1014000003F0C2FD726996F861301344012193F82C
:1014100012A0504603F0B8FD09240021504603F005
:101420009FFD2B46013BFDD10121504603F098FD65
:101430002B46013BFDD1013CEFD1706996F861105C
:1014400001444FF416720C7A4B7B09EBC4011B026A
:10145000496803F4E06343F064030B6096F862307C
:101460000344997CDB7D09EBC1011B02496803F44D
:10147000E06343F064030B60013AFDD13269D37835
:101480009B064FF00101A3D4012002B0BDE8F08714
:101490004014FF1FA09C0000F0B503691222DA700F
:1014A0000269937803F0200385B004460D46002BB3
:1014B0005ED0B42393703C4922690B680093009E70
:1014C00005E00B680193019B9B1B042B42D8D3784A
:1014D00003F0200303F0FF00002BF2D094F85D30FE
:1014E000002B31D04FF0000E4FF0020C04EB0E0336
:1014F00093F83B3013710B680393039F206907E057
:101500009B060DD50B680293029BDB1B052B28D88D
:10151000C378DBB203F0020202F0FF06002AEFD02C
:1015200080F803C02669F378DBB2DF0632462DD49B
:101530009F062BD5DB0731D40EF1010E94F85D30F8
:101540005FFA8EFE7345D1D800201DBB002384F8BE
:101550005E3004E09070236980229A70042005B008
:10156000F0BD86702369802204209A7005B0F0BD1A
:1015700003F0FF06FFF71AFF10B9042005B0F0BD15
:10158000236984F85F60B0229A7094E78023B37077
:101590000420DAE726698023B370D7E7BEF1000F95
:1015A0000CBF02200320F6E74014FF1F2DE9F04195
:1015B00006690025122780F8385080F83950F770F6
:1015C000D0F810C09CF802E00EF0200E88B004465F
:1015D000884615461E46BEF1000F49D0B4238CF84C
:1015E00002307A4B21691A680092DDF800E006E0CB
:1015F0001A6801920198CEEB0000042830D8C87810
:1016000000F0200000F0FF070028F1D04FEA480268
:1016100042F00102D2B20A711A680292DDF808E0C3
:10162000206906E01A6803920399CEEB01010529AF
:101630002AD8C17801F0020101F0FF070029F1D09A
:101640004FF0020C80F803C02269D17811F0110725
:1016500022D12DBB002E0CBFA0238023937003E06A
:101660008F70236980229A70384608B0BDE8F081F7
:101670000EF0FF07FFF79AFE0028F5D0236984F8E3
:101680005F70B0229A70ACE7877023698022384679
:101690009A7008B0BDE8F081802393700027E3E7DB
:1016A000012D78D0A021917021690A79BE46674644
:1016B0004FF0A80C1A680492049805E01A68059285
:1016C000059A121A052A4DD8CA7802F0020202F0D1
:1016D000FF08002AF2D0CF702169CA78D2B212F086
:1016E000100F08465DD192065BD5013DEDB2012D8C
:1016F0004CD0BEF11F0F3ED90A79012DDAD11A68FC
:101700000692069D05E01A680792079A521B052A61
:1017100056D8C27802F0020202F0FF01002AF2D08D
:101720000223C3702269D378DBB2D9063BD49B066F
:1017300037D5B023BEF11F0F937043D8226904EB55
:101740000E0312791A760EF1010E5FFA8EFE00BFBB
:1017500000BF00BF16B1236980229A7084F839E077
:10176000774681E781F80280236980229A70774664
:1017700084F839E078E704EB0E0291F8048082F8EF
:1017800018800EF1010E5FFA8EFEB6E781F802C0F6
:1017900021690846ADE7A82191702069BE4602790B
:1017A000ADE7774660E710214FF49673D170013BA7
:1017B000FDD12269937803F0F7037746937053E7DE
:1017C0008170D1E723691B79C1E700BF4014FF1F77
:1017D0000148FFF753BD00BFB407FF1F0148FFF7E3
:1017E0004DBD00BF2008FF1F0148FFF747BD00BFE8
:1017F0004807FF1F70B5A1F12003072B86B00446F0
:10180000164602D9072926D820312171206810B147
:10181000102104F0C3FD102004F0BEFD217905461F
:10182000324600F06BF925602846012100F08CF962
:1018300078B120680024FF250194009403A90123B6
:101840000A2204940394CDF813408DF80D5000F053
:101850008BF906B070BD27230371D7E730B5056853
:1018600089B0012300240A460193294602A8009466
:1018700000F05CF802A800F003F9C0B209B030BD76
:1018800070B5066888B001230024154601930A4606
:1018900002A83146009400F049F82246294602A8E1
:1018A00000F090F808B070BD072901D900207047FA
:1018B00070B50C46002115460646FFF7CFFF012202
:1018C000A24045B120EA0202D2B230460021BDE872
:1018D0007040FFF7D5BF0243D2B230460021BDE8C9
:1018E0007040FFF7CDBF00BF072901D90020704726
:1018F00070B515460C4609210646FFF7AFFF012DCE
:101900000AD00122A24020EA0202D2B230460921C6
:10191000BDE87040FFF7B4BF05FA04F20243D2B24B
:1019200030460921BDE87040FFF7AABF70B49DF8AA
:1019300010609DF80C500160002146738573428150
:1019400003734161416070BC704700BFF0B54389CB
:10195000056885B0DCB21B128DF80C408DF80D3097
:101960004DB1437B019303AB00932846012300F064
:10197000FBF805B0F0BD43680BB31746027A0E467C
:101980006AB904F07F048DF80C40427B0092314626
:101990003A46184603AB00F055FA05B0F0BD022AEE
:1019A00004D164F07F048DF80C40EEE7012AECD1FD
:1019B00004F07F0444F040048DF80C40E5E718463D
:1019C000D7E700BF02B9027B042A1AD8F0B44161FC
:1019D00000F10F077AB102F10E03867B3C46034407
:1019E00000F10E055EB92170013BAB424FEA1121B7
:1019F00004F10104F6D13946F0BCFFF7A7BF197016
:101A0000F2E70020704700BF70B54489066884B0D3
:101A1000E5B224128DF80C508DF80D405EB1437B79
:101A2000009200241A4630460B46019403A900F0A8
:101A30000BF904B070BD4468FCB1037A7BB965F062
:101A40007F058DF80C50437B0092FF251A462046F7
:101A50000B46019503A900F0A1FA04B070BD022B5A
:101A600004D105F07F058DF80C50ECE7012B04BF85
:101A700065F03F058DF80C50E5E72046D9E700BF3B
:101A800038B500F10F042146027B0546FFF7BCFF85
:101A900010B94FF0FF3038BD287B0028FBD00E3046
:101AA0002B18AA7B21460E35002007E01C78013B4D
:101AB000AB4240EA040001F101010AD00002002A11
:101AC000F4D00C78013BAB4240EA040001F1010183
:101AD000F4D138BD70B5044640681E4603685B68A3
:101AE00015469847854201D0002070BD3146606898
:101AF000FFF7D2FCB0FA80F0400970BD30B4002589
:101B000020240572C4600170426030BC704700BF81
:101B1000037A10B5044683B122786368012152002C
:101B200083F83B2083F85E1083F85D106068FFF750
:101B3000B3FCB0FA80F0400910BD012100F004F8B8
:101B40000028E9D110BD00BF38B5044640680D46F5
:101B5000FFF74AFB0120207205B938BD2046BDE8D9
:101B60003840FFF7D5BF00BF2DE9F041079EC4689C
:101B7000DDF818E09519A54219D81546027898465F
:101B800043680F4652000121044683F83B2083F846
:101B90005E1083F85D106EB1BEF1000F0AD0406890
:101BA000036871465B6832469847864202D000203F
:101BB000BDE8F08143462A4639462046BDE8F0415B
:101BC000FFF788BF2DE9F843C468A24202D900207C
:101BD000BDE8F88316468846074601784068D2B2C9
:101BE000FFF7E4FC8642F2D136B30023DFF85490CD
:101BF0001C4612E090F8383090F839209A4203F1F0
:101C0000010E00EB03011AD980F838E0087E287035
:101C10000134A4B2A64223460ED9786802685269FC
:101C20004A4508EB0305E5D090470134A4B2C0B2A1
:101C3000A64228702346F0D80120BDE8F883FF2093
:101C4000E5E700BF491100002DE9F041C568069F96
:101C50009DF81C60AA4202D90020BDE8F08190F8EE
:101C600000C0D0F804E04FF001084FEA4C0C1D46CC
:101C70008EF83BC033468EF85E808EF85D80044659
:101C8000FFF728FF0028E7D043463A46294620467A
:101C9000BDE8F041FFF796BF2DE9F0470468134611
:101CA0000A4624B12046BDE8F04700F061BB067B40
:101CB0000C7885686249B1FBF5F5002E0CBF4FF03A
:101CC00001094FF0800919EA040F0CBF4FF0010C15
:101CD0004FF0000CEDB2002B00F0AF80C5EB051704
:101CE000114602EB0308BF0011F801EB4B4600263A
:101CF000002D50D0002F4ED03A46013AFDD1427B04
:101D000012F0F70F40F08D8090F91020013212D0C0
:101D10001EEA030214BF0124002464450BD0002AEC
:101D20006CD0446990F8242094F800C04CEA020278
:101D300022704FF0010C846990F8262094F800A0DE
:101D40004AEA020222701DB117B13A46013AFDD1AA
:101D500090F91120013206D0C26990F8254012781E
:101D6000224218BF1E43826990F826A0147824EA04
:101D70000A04147090F91120013201D001F8016CAD
:101D8000027B002A35D15B00DBB2002BB0D1884545
:101D9000AAD1BDE8F087427B12F0F70FB4D0846976
:101DA00090F8262094F800A04AEA0202227090F9E6
:101DB000102001320AD01EEA030F44692AD090F89D
:101DC000242094F800A04AEA02022270846990F864
:101DD00026A0227822EA0A02227090F9112001320C
:101DE000CED0C26990F825401278224218BF1E4317
:101DF000C4E75B08002B7FF47BAFC8E7D0F814A0E2
:101E000090F824C09AF8004024EA0C048AF80040B4
:101E1000944690E790F824A0227822EA0A022270E1
:101E2000D4E7846990F8262094F800A04AEA0202D8
:101E300022703A46013AFDD1B9E7BDE8F08700BF0C
:101E400020A107002DE9F0430C4683B001680A9FEA
:101E5000064690461D4681B14268CB7A1268002B37
:101E600054D10B68D968914207D042481860424962
:101E7000DA6042F08040186119600021B07B03F005
:101E80006FF877B105EB07090DF1070715F8013B6E
:101E90008DF80730012239463046FFF7FDFEA9458F
:101EA000F4D1B8F1000F0ED004EB08050DF10707CF
:101EB00014F8013B8DF80730012239463046FFF710
:101EC000EBFEA542F4D10121B07B03F049F8336861
:101ED000C3B1DA7AB2B1D40703D5284AD9691160FF
:101EE000DA7A900703D5264A196A1160DA7A51071F
:101EF00003D5244A596A1160DA7A120702D5224AB8
:101F00009B6A1360012003B0BDE8F08372B6CB7A00
:101F1000D80709D5DFF874E0C868DEF80030034060
:101F2000CB61CEF80030CB7A980709D5DFF860E0B6
:101F30000869DEF8003003400B62CEF80030CB7A3F
:101F4000580709D5DFF84CE04869DEF80030034057
:101F50004B62CEF80030CB7A1B0708D5DFF838E0AB
:101F60008869DEF8003003408B62CEF8003062B63C
:101F700077E700BF01403F0000003F8000E100E044
:101F800004E100E008E100E00CE100E080E100E0B5
:101F900084E100E088E100E08CE100E02DE9F04719
:101FA0000D4682B00168DDF828909DF82C80064629
:101FB00017461C4681B14268CB7A1268002B55D176
:101FC0000B68D968914207D0424818604249DA60EC
:101FD00042F08040186119600021B07B02F0C0FF20
:101FE00077B105EB070A0DF1070715F8013B8DF8EE
:101FF0000730012239463046FFF74EFEAA45F4D19C
:10200000B9F1000F0FD0A1440DF1070701223946A5
:1020100030468DF80780FFF73FFE9DF8073004F843
:10202000013BA145F2D10121B07B02F099FF336859
:10203000C3B1DA7AB2B1D40703D5284AD96911609D
:10204000DA7A900703D5264A196A1160DA7A5107BD
:1020500003D5244A596A1160DA7A120702D5224A56
:102060009B6A1360012002B0BDE8F08772B6CB7A9C
:10207000D80709D5DFF874E0C868DEF800300340FF
:10208000CB61CEF80030CB7A980709D5DFF860E055
:102090000869DEF8003003400B62CEF80030CB7ADE
:1020A000580709D5DFF84CE04869DEF800300340F6
:1020B0004B62CEF80030CB7A1B0708D5DFF838E04A
:1020C0008869DEF8003003408B62CEF8003062B6DB
:1020D00076E700BF01403F0000003F8000E100E0E4
:1020E00004E100E008E100E00CE100E080E100E054
:1020F00084E100E088E100E08CE100E02DE9F041BE
:102100000468E56815F0807F794D256052D1DF07BE
:1021100040F1B380002900F0E3800D78012B18BF57
:1021200045F000456563013190F82C8003F1FF3CD8
:1021300048EA0828BCF1000F00F0A88021B14D78D2
:1021400011F8028B45EA082845682E7ABCF1020F87
:1021500006F1FF364FEA06360CBF48F0805548F0CE
:102160001045B6B26563ACF1020C08E00AB1147018
:102170000132013B05F47045B54216D90468E56AA1
:1021800015F0F00FF6D0A46B13F0010F17464FEACD
:10219000242EEBD11AB107F802EB54703A4605F43D
:1021A0007045B542A3F10203E8D8BCF1000F6DD031
:1021B0000468C3E7DD074CD5002900F089800D785D
:1021C000012B18BF45F000456563013103F1FF3E67
:1021D00090F82CC0BEF1000F41D029B191F801C098
:1021E0000D78023145EA0C2C45682E7ABEF1020FBB
:1021F00006F1FF364FEA06360CBF4CF080554CF026
:102200001045B6B26563AEF1020E08E00AB1147073
:102210000132013B05F47045B54215D90468E56A01
:1022200015F0F00FF6D013F0010F1746A46BEDD1A7
:1022300022B107F8024B241254703A4605F4704557
:10224000B542A3F10203E9D8BEF1000F07D004683C
:10225000C3E79E4690F82CC0BEF1000FBDD11BB362
:102260000468E16A11F0F00FFBD0A16BDC071DD50B
:102270000AB111700132013BF1E790F82C809C46C5
:1022800048EA0828BCF1000F7FF458AF63B1046836
:10229000E16A11F0F00FFBD0DE07A16B0FD50AB198
:1022A00011700132013BF1E7BDE8F0812AB114461B
:1022B0000D1204F8021B55702246023BCFE72AB1EB
:1022C00014460D1204F8025B51702246023BDDE712
:1022D00090F82C50012B18BF45F00045656375E759
:1022E00090F82C50012B18BF45F0004565631BE7A3
:1022F00000041F8090E80C00F0B41C685968256841
:10230000164F174E29432160164D17491760D660A6
:1023100015611160417A154A5C180C3194F82C4013
:1023200053F8215002EBC40149680D60017A5C1832
:1023300003EB8101247ECD6902EBC40149680D6085
:10234000817A581803EB810390F84000596C02EB36
:10235000C002F0BC53681960704700BF01401F0005
:10236000011000380110007800001F80A09C0000C0
:102370000BB1FFF7C3BE7047704700BF2DE9F04FA8
:1023800085B09946BDF93870BDF83CA0BB1AC1EBC9
:10239000090B002BB8BF5B42BBF1000FB8BFCBF1FC
:1023A000000B5B450D4616460093804648DC4D45C4
:1023B0003A4633464CDC194613460A46C5EB09013A
:1023C0009B1A89B2002B0CB2B8BF5B4204EBD474E9
:1023D000BE42ACBF4FF0FF3201224D450391029245
:1023E0004FEA640429DC9BB201930DE0D8F8007039
:1023F000BF69B847019BE41AA3B21CB20135002C97
:102400002DB211DBA94518DB009B5B452A465346DC
:1024100031464046EADCD8F8002053469769294601
:1024200032464046B847E5E7029A1644039AA94562
:1024300002EB030436B224B2E6DA05B0BDE8F08F51
:102440004A462B46B94635464D4517461E46B2DD2F
:10245000304629463E464D4607468946AEE700BF10
:1024600010B404682469A4465DF8044B604700BFBB
:1024700030B40468BDF808500295A46BA44630BC83
:10248000604700BF30B40468BDF808500295E46BA3
:10249000A44630BC604700BF70B40468BDF90C604E
:1024A000BDF8105003960495246CA44670BC604798
:1024B000704700BF10B582B0B0F90C2001910168DF
:1024C000009200220C6CB0F90A301146A04702B00D
:1024D00010BD00BF704700BF01F003010129017664
:1024E00006D0032904D0C2880389428183817047C2
:1024F0000289C38842818381704700BF2DE9F04182
:102500000568134E6F6986B0B7420446BDF8308047
:1025100010D1013B13441BB20093CDF804800B464D
:10252000AD6A2046A8472368DB6AB3420AD106B0E9
:10253000BDE8F081059304920391B84703A925688B
:102540000EC9E6E7204606B0BDE8F041184700BFD7
:10255000B12400002DE9F0410568124E6F6986B084
:10256000B7420446BDF830800FD1013BCDF804805E
:102570000B4400921BB2AD6A2046A8472368DB6A71
:10258000B3420AD106B0BDE8F081059304920391ED
:10259000B84703A925680EC9E7E7204606B0BDE89D
:1025A000F0411847B12400002DE9F04F0568DFF82D
:1025B00058B06F6985B05F450646BDF93890BDF8E3
:1025C0003CA00C46904615D11F19BC420CDACDF840
:1025D00000A0214601342D6A4B464246304624B2C3
:1025E000A847BC423568F2DBEB6A5B4507D105B012
:1025F000BDE8F08F0393B8473568039BE4E73046A6
:1026000005B0BDE8F04F1847B12400002DE9F043B4
:1026100087B099420546BDF93840BDF83C6025D0E9
:10262000A24212D00768DFF88080D7F81490C14525
:1026300032D18DE850002846BC6AA0472B68DB6A7F
:10264000434524D107B0BDE8F083994202DD084636
:102650001946034628680E96C46B01335B1A1BB2F9
:102660002846A44607B0BDE8F0436047A24202DD19
:10267000134622461C4628680E96631C846B9B1AE0
:102680001BB22846A44607B0BDE8F0436047284681
:1026900007B0BDE8F0431847059304920391C8477B
:1026A00003A92F680EC9C4E7B12400002DE9F04F3B
:1026B000D0F800E0DFF89090DEF814B083B0CB459E
:1026C0000446BDF93080BDF834A00D4617461E46BD
:1026D00031D1CDF800A0DEF824B0294633463A4681
:1026E0002046D8472368CDF800A008F1FF323A44CD
:1026F000D3F824B0294612B233462046D84723687F
:10270000CDF800A02946D3F820B03A4643462046EB
:10271000D8472068CDF800A0711E29444346056AB9
:1027200009B23A462046A8472368DB6A4B4506D1E2
:1027300003B0BDE8F08FD847D4F800E0C9E72046E1
:1027400003B0BDE8F04F1847B1240000F0B40024F6
:1027500001254FF6FF76094F076004710476C481A6
:1027600004828476C461C575857545768682468205
:10277000C180028141818281F0BC70478895000050
:102780002DE9F04F91B083460591C169BDF868000D
:1027900006909DF87400BDF86C709DF870A00390D1
:1027A00002929946002900F0CC800B7A48680A68AA
:1027B000C3EB0903DBB2154600EBC30230F833600C
:1027C000D3780993BAF1010F92F9053092F802809B
:1027D0000E9392F9064079D9BDF93830089323B2A7
:1027E0000B93A94BDBF800200F93194653698B42DA
:1027F00040F0A280099B002B53D0BDF808300C9309
:102800000021234407910D930F460C46A946B8F1C9
:10281000000F3FD0BDF81C100B9BBDF80C000297B9
:10282000CB1813FB00F30C9803440D981BB2014422
:1028300004930BB20A93002505E00135EBB2640066
:102840009845E4B223D9029B2B44590703D1731C4A
:1028500019F806409EB22306EFD5089BE918059BA0
:1028600011FB0AF1BAF1010F194402D1039B012BAC
:102870001ED0069B0193039B0093D369049A1F46C5
:1028800009B253465846B847DBF80020D5E7029F07
:102890004744FFB2079B099901330793DBB2994282
:1028A000B5D8D36A0F9A934241D111B0BDE8F08FE9
:1028B0000E9B0599591893690A9A29441F4609B233
:1028C000069B5846B847DBF80020B6E7039B012B70
:1028D00082D800230B93089383E70799099A013163
:1028E000013A49B212F0FF020791099260D1069AAB
:1028F0004A454F4617D0BAF1010F03D1039A012A76
:1029000000F0B5800A9A089802EB8201039AD2007F
:102910008DE88400084401B2DC69029A53465846A7
:10292000A047DBF80030DB6A0F9A9342BDD05846CF
:1029300011B0BDE8F04F184758469847DBF8002023
:1029400058E7BBF90A3005998B42AEDDBBF90C3074
:1029500002988342A9DD062313FB0A13002BA4DD92
:10296000039B00EBC303002B9FDD9BF81A3033B9A8
:10297000B9F1AF0F84BF09F101035FFA83F9424A4D
:10298000DBF800300F9211465A698A426AD1BDF8CD
:102990001420089205220992002207921FFA8AF257
:1029A0000A92CDF830900FFA8AF2B946039F059249
:1029B0000799BDF83040089D0522104610FB04120F
:1029C0000A98324C0646084601FB0651A65C15FAE9
:1029D00080F209B212B204910B92082400251CE087
:1029E000BAF1010F01D1012F24D0069A0192029A67
:1029F000009705FB0722D3F81C800499059B12B2AF
:102A00005846C047DBF80030013C013514F0FF04A4
:102A10006DB24FEA56063FF460AFF007E0D4069A75
:102A20004A45F1D0BAF1010F01D1012F0ED0CDF8F6
:102A30000490DCE7029AD3F818800B99069BAA1839
:102A400012B25846C047DBF80030DDE7029AD3F8EF
:102A500018800B99AA184B4612B25846C047DBF8AB
:102A60000030D1E758469047DBF800308FE70899EF
:102A7000CDF8009005311C6A029A082309B2584625
:102A8000A047DBF800304EE7B1240000D8950000E5
:102A9000F0B5C36985B004463BB30A296FD00D2950
:102AA0004FD01A7A91424CD3987A884249D38A1AE5
:102AB0005D68D2B205EBC205AA78002A56D0E87844
:102AC000002853D0607E00283ED095F905E0B4F987
:102AD0000E00A67DB4F90A70724406FB0202BA42E7
:102AE00069DCE77DB4F9102034E00A295CD00D29B7
:102AF00027D0427E002A50D0B0F90E00A57DB4F94F
:102B00000A60062212FB0502B242E67D42DD228AFD
:102B1000E38102EBC60212B218462282B4F814E036
:102B2000678A03960B46029501468DE88040204651
:102B3000FFF726FEA37DE28903EB430302EB430389
:102B4000E381012005B0F0BDA67DE77DB4F90E005C
:102B5000B4F91020B4F814E00397678A02960B4684
:102B60008DE8804001462046FFF70AFE2979E38977
:102B7000A27D012001FB0233E38105B0F0BD0022FC
:102B8000C2811A7BC17D038A01FB023303820120CB
:102B900005B0F0BDB4F91020C0E7857DC67DB4F95D
:102BA0001020B0F90E00B9E7028AC17DC38102EBA3
:102BB000C1030382C5E70020E0811B7B228AE77DF9
:102BC00003FB072212B22282C4E700BF11B1817554
:102BD000C175704701218175C1757047C36911B115
:102BE00043B1C1617047002BFBD0038AC161063B32
:102BF00003827047038AC16106330382704700BFB6
:102C0000F0B490F858500E12CFB2C5B9511EA2B10F
:102C10004FF00044036B1A68D4625663D36A002BEA
:102C2000FCDA036B926B1A68D4625763D36A002B89
:102C3000FCDA0139936B4B1CECD1F0BC7047012DD1
:102C40001CD0F6B2BE422ED0541E01237AB9F4E74E
:102C5000026B1670426C1370026C1370026B17706B
:102C6000426C1370026C013C1370621CE5D090F84A
:102C70005420002AECD0026B1180F1E712F1FF32F0
:102C8000DBD30C46102326044CBF466B866B357095
:102C9000C66B3570013B066C64009BB2A4B2357004
:102CA000002BF0D1EAE790F8543073B9036B52006F
:102CB0001E70531E002AC0D00122416C0A70016CA4
:102CC000013B0A70591CF8D1B7E7036B1980F0E794
:102CD0002DE9F04F83B0BDF93050BDF83470002BB2
:102CE0005BD0002D59D0002B06461C465FDBB6F9A1
:102CF0000A308B4251DD002D52DBB6F90C009042B8
:102D00004BDD1FFA81F808EB040C1FFA8CFC0CF168
:102D1000FF3E0FFA8EFEBEF1000F3EDB1FFA82F976
:102D200009EB050B1FFA8BFB0BF1FF3A0FFA8AFA3E
:102D3000BAF1000F31DB0029BCBF0FFA8CF44FF061
:102D40000008002ABCBF0FFA8BF54FF0000973454D
:102D5000DCBFC8EB030424B233685045DCBFC9EBC9
:102D6000000215B230465B6998473368AAB20092F8
:102D700041464A46D3F854803046A3B2C04704FBCC
:102D800005F21AB139463046FFF73AFF3368DB6A7D
:102D9000304603B0BDE8F04F184703B0BDE8F08FF0
:102DA000ADB201322A446D4212B22DB2A5E79CB2F7
:102DB00001312144644209B224B298E790F95A30B3
:102DC000002B02DB036A01221A7090F8583003B11D
:102DD0007047026BD37A002BFAD0D90703D50B4B7F
:102DE000D1691960D37A980703D5094B116A196024
:102DF000D37A590703D5074B516A1960D37A1B0759
:102E0000E6D5054B926A1A60704700BF00E100E00A
:102E100004E100E008E100E00CE100E02DE9F04110
:102E200082B00E1EBDF820703ADB1D46B0F90A30A4
:102E3000B342044634DD002D32D034DBB4F90C301B
:102E400093422DDD1FFA82F808EB050080B2411E87
:102E500009B2002924DB002ABCBF05B24FF00008EC
:102E60008B42D8BFC8EB03052368D8BF2DB22046DC
:102E70005B6998472068ABB20093B1B24246466D99
:102E800001232046B04725B12A4639462046FFF7A0
:102E9000B7FE2368DB6A204602B0BDE8F041184760
:102EA00002B0BDE8F081ADB201322A446D4212B2E7
:102EB0002DB2C3E72DE9F04182B0161EBDF8207097
:102EC0003ADB1D46B0F90C30B342044634DD002D28
:102ED00032D034DBB4F90A308B422DDD1FFA81F891
:102EE00008EB050080B2421E12B2002A24DB002942
:102EF000BCBF05B24FF000089342D8BFC8EB030532
:102F0000236820465B69D8BF2DB298472368012209
:102F100000924146B2B220465E6DABB2B04725B1D9
:102F20002A4639462046FFF76BFE2368DB6A2046B7
:102F300002B0BDE8F041184702B0BDE8F081ADB283
:102F4000013129446D4209B22DB2C3E7F0B583B017
:102F50000029BDF8206031DB1C46B0F90A308B42F5
:102F600005462BDD002C29D02ADBB5F90C30934225
:102F700024DD1FFA82FE0EEB0407BFB2781E00B2FA
:102F800000281BDB002ABCBF3CB24FF0000E83427E
:102F9000DCBFCEEB030424B22868A3B20093476DD4
:102FA000724689B201232846B8473CB122463146D1
:102FB000284603B0BDE8F040FFF722BE03B0F0BDE5
:102FC000A4B201322244644212B224B2CDE700BF5F
:102FD000F0B583B0002ABDF8206033DB1C46B0F9A1
:102FE0000C30934205462DDD002C2BD02CDBB5F99F
:102FF0000A308B4226DD1FFA81FE0EEB0407BFB2BA
:10300000781E00B200281DDB0029BCBF3CB24FF087
:10301000000E8342D8BFCEEB03044FF001012B68B2
:103020000091D8BF24B25F6D92B27146A3B2284618
:10303000B8473CB122463146284603B0BDE8F040CF
:10304000FFF7DEBD03B0F0BDA4B2013121446442FC
:1030500009B224B2CBE700BF2DE9F04F83B0BDF930
:103060003050BDF83470002B4CD0002D4AD0002BCE
:1030700006461C4650DBB6F90A308B4242DD002D75
:1030800043DBB6F90C0090423CDD1FFA81FC0CEBEF
:1030900004081FFA88F808F1FF3E0FFA8EFEBEF111
:1030A000000F2FDB1FFA82F909EB050B1FFA8BFBD0
:1030B0000BF1FF3A0FFA8AFABAF1000F22DB00296E
:1030C000BCBF0FFA88F44FF0000C002ABCBF0FFA07
:1030D0008BF54FF000097345DCBFCCEB030424B241
:1030E0005045DCBFC9EB00052DB23368AAB200928F
:1030F000D3F854804A466146A3B23046C04704FB29
:1031000005F282B903B0BDE8F08FADB201322A44B6
:103110006D4212B22DB2B4E79CB201312144644237
:1031200009B224B2A7E73946304603B0BDE8F04FF4
:10313000FFF766BD90F8583030B443B190F95A307B
:10314000002B02DB436A01221A7030BC7047036B0C
:10315000426BD97A002925D072B6D97ACC0706D528
:10316000174CD96825682940D9612160D97A8D0723
:1031700006D5144C19692568294019622160D97A4D
:103180004C0706D5104C59692568294059622160C1
:10319000D97A090705D50D4C9969256829409962A6
:1031A000216062B61B68D9689142C7D0084C1C6088
:1031B0000849DA6042F080441C611960BEE700BF34
:1031C00080E100E084E100E088E100E08CE100E0E3
:1031D00001403F0000003F802DE9F04712B2044655
:1031E00009B21D469DF920709DF924809DF9289013
:1031F0009DF92CA09DF93060FFF7A8FA002227491D
:10320000274884F86020012384F8612084F859A0BD
:1032100084F85A5084F85B7084F8469084F84480AF
:1032200084F84560206084F8583051F83730A4F8AD
:103230005C2003F1800E03F58073C4F828E0E3629C
:1032400051F83900A4F85E2000F1800C00F5807080
:10325000C4F83CC0206451F838006266002D00F1CB
:10326000800200F580706263A06313DB51F8353093
:1032700003F1800203F5807322626362002EACBF0B
:1032800051F8363051F8373003F500732363204688
:10329000BDE8F087C4F820E06362EFE7A09C00007F
:1032A000E09A0000F8B504465A4B90F95A000029FC
:1032B00014BF0E461E460028174608DBC0B2012187
:1032C00001F062FE012194F85A0001F049FE01214B
:1032D00094F85B0001F058FE012194F85B0001F0C6
:1032E0003FFE94F85850002D4CD0012D74D094F826
:1032F0005430002B3FD0A36B4FF6FF721A80236B24
:1033000000221A80012194F8520001F03DFE94F849
:103310005200012101F024FE94F95300002808DB3B
:10332000C0B2012101F030FE012194F8530001F0F8
:1033300017FE94F95900002823DBC0B2012101F0E7
:1033400023FE012194F8590001F00AFE642001F0E7
:1033500021FE002194F8590001F002FE642001F0E2
:1033600019FE94F85900012101F0FAFDC820BDE8CA
:10337000F84001F00FBEA26BFF211170226B137099
:10338000C0E7F8BD2448254D002102E0172A08D0E7
:10339000114630F8023F95FBF3F39E4201F1010222
:1033A000F4D31F4B17F0080F14BF4FF070524FF0BB
:1033B000605253F82130790707D5190901F470617B
:1033C00023F4704342F000720B4313436363A7631B
:1033D000206BFEF78FFFACE7294694F8440001F01C
:1033E000D3FD002194F8440001F0BAFD294694F879
:1033F000460001F0C9FD94F84600002101F0B0FD3F
:1034000094F94500002894DBC0B2002101F0BCFD16
:103410008FE700BF0024F400F294000000879303BC
:103420002495000090F8583053B9036B1A684FF098
:103430000043D3625163D36A002BFCDA936B70476D
:10344000012B0ED090F8543043B1036B89B2198030
:10345000426C01231370026C13707047036B197078
:10346000F6E710B408220C064CBF446B846B237043
:10347000C46B2370046C013A490012F0FF02C9B218
:103480002370F0D15DF8044B704700BF036870B53E
:103490005B690D46044698477DB994F86110E36A6C
:1034A00001251D702046FFF7BDFFA36A1D7023682C
:1034B0002046DB6ABDE87040184794F86010EEE7DC
:1034C00038B5C36A01241C70FFF7ACFF836A1C7017
:1034D00038BD00BF90F8582010B4C2B9036B1A6809
:1034E0004FF000440B12D4625363D36A002BFCDA12
:1034F000036B926B1A68C9B24FF00043D3625163F9
:10350000D36A002BFCDA936B5DF8044B7047012AF9
:1035100018D090F854304BB1036B1980426C0123E2
:103520001370026C13705DF8044B7047036B0A0A4A
:103530001A70426C01231370026C1370036BC9B2D2
:103540001970EBE710230C044CBF446B846B2270A2
:10355000C46B2270046C013B490013F0FF0389B275
:103560002270F0D15DF8044B704700BFF8B50446F7
:1035700090F8580016461F4600284FD094F95A304C
:10358000002B02DB636A01221A70E36A01251D70B9
:103590002046FFF747FFA36A1D7000253FB916E0DC
:1035A00016F8011B0135FFF73DFFBD420FD094F81F
:1035B0005830022B2046F3D194F85430002BEFD032
:1035C00036F8021B0135FFF785FFBD42EFD194F9B4
:1035D0005A30002B02DB236A01221A7094F858300B
:1035E00003B1F8BD226BD37A002BFAD0DC0703D5E8
:1035F0002D4BD1691960D37A980703D52B4B116AEB
:103600001960D37A590703D5294B516A1960D37AC7
:103610001B07E6D5274B926A1A60F8BD236B626BD5
:10362000D87A002831D072B6D87AC50709D5DFF824
:1036300090E0DD68DEF800002840D861CEF8000098
:10364000D87A850709D5DFF87CE01D69DEF800002F
:1036500028401862CEF80000D87A450709D5DFF86F
:1036600068E05D69DEF8000028405862CEF800008E
:10367000D87A050708D5DFF854E09D69DEF8000028
:1036800028409862CEF8000062B61B68D868904265
:103690003FF474AF084D1D600848DA6042F0804581
:1036A0001D6118606AE700BF00E100E004E100E08E
:1036B00008E100E00CE100E001403F0000003F8035
:1036C00080E100E084E100E088E100E08CE100E0DE
:1036D000F8B5064690F8580014461F46002850D00A
:1036E00096F95A30002B02DB736A01221A70F36AD2
:1036F00001251D703046FFF795FEB36A1D70002549
:1037000047B917E021780135FFF78CFEBD4204F17F
:1037100001040FD096F85830022B3046F2D196F8BB
:103720005430002BEED034F8021B0135FFF7D2FEE7
:10373000BD42EFD196F95A30002B02DB336A0122E9
:103740001A7096F8583003B1F8BD326BD37A002B5B
:10375000FAD0DC0703D52D4BD1691960D37A9807CD
:1037600003D52B4B116A1960D37A590703D5294B1E
:10377000516A1960D37A1B07E6D5274B926A1A6003
:10378000F8BD336B726BD87A002831D072B6D87A14
:10379000C50709D5DFF88CE0DD68DEF800002840B9
:1037A000D861CEF80000D87A850709D5DFF878E02F
:1037B0001D69DEF8000028401862CEF80000D87AB3
:1037C000450709D5DFF864E05D69DEF800002840B0
:1037D0005862CEF80000D87A050708D5DFF850E027
:1037E0009D69DEF8000028409862CEF8000062B6BD
:1037F0001B68D86890423FF473AF084D1D600848BD
:10380000DA6042F080451D61186069E700E100E080
:1038100004E100E008E100E00CE100E001403F00CD
:1038200000003F8080E100E084E100E088E100E00A
:103830008CE100E0002927DBF0B5B0F90A508D4299
:1038400083B0044605DD002A03DBB0F90C50954235
:1038500001DC03B0F0BD1F4603685B690E461546E8
:103860009847206801230093AAB2B1B2456D204663
:10387000A84720463946FFF72DFE2368DB6A20461D
:1038800003B0BDE8F0401847704700BF00291DDBBA
:1038900070B5B0F90A508D4282B0044605DD002AA9
:1038A00003DBB0F90C50954201DC02B070BD066834
:1038B0001D460123009392B289B2766DB047294626
:1038C000204602B0BDE87040FFF704BE704700BF5D
:1038D00090F8582030B4002A2FD1036B1A684FF0AB
:1038E00000440B0ED4625363D36A002BFCDA036BE3
:1038F000926B1A684FF00044C1F30743D4625363DC
:10390000D36A002BFCDA036B926B1A684FF0004409
:10391000C1F30723D4625363D36A002BFCDA036B31
:10392000926B1A68C9B24FF00043D3625163D36AF5
:10393000002BFCDA936B30BC7047012A30D090F832
:1039400054308BB1426C046B01230D0C2580137035
:10395000026C1370036B89B21980426C01231370DF
:10396000026C137030BC7047036B0A0E1A70426C05
:1039700001231370026C1370026BC1F307441470BF
:10398000426C1370026C1370026BC1F30724147045
:10399000426C1370026C1370036BC9B21970DCE7D0
:1039A00020230029B4BF446B846B2270C46B227047
:1039B000046C013B13F0FF034FEA41012270F0D188
:1039C00030BC704710B590F86B3082B003F0FB024A
:1039D00001F003010024012A01768DF807402FD061
:1039E000022990F8694034D003293FD001291AD028
:1039F000022B57D0042B59D0C822012B8DF8072059
:103A000030D0A02280238281438190F86830A0F8D2
:103A10005E40A0F85C3001230DF107023621FFF76C
:103A2000A5FD02B010BD022B34D0042B46D0A82235
:103A3000012B8DF8072022D180234381838122E04E
:103A400001299ABF032422461446022980F86920DE
:103A5000CAD1022BD5D0042B3FD00822012B8DF8E0
:103A60000720CED1802383814381CEE7022B15D05E
:103A7000042B2AD06822012B8DF80720DCD0A0224D
:103A800080234281838190F86830A0F85C40A0F8E0
:103A90005E30C0E7A0238DF80730F0E760238DF893
:103AA0000730ECE7C0238DF80730AAE7C021A02239
:103AB00050238DF8071082814381A6E7A02350226E
:103AC0008DF8073043818281DDE76021A0225023F9
:103AD0008DF8071042818381D5E7A022502382818F
:103AE000438192E770B586B04FF0FF349DF92860AE
:103AF0009DF92C50019300920B4604940296039575
:103B0000A0228021044600F0FBF8024B23602046EF
:103B100006B070BD509B000030B50D4683B03649ED
:103B2000044600F035F9002D41D005F0FB03012BD0
:103B30004CD0042D14D03149204600F003F930490F
:103B4000204600F0FFF8022D1CD0052D25D023685B
:103B500084F86B501B6B20460021984703B030BDA2
:103B60005022A023A28163812649204600F0EAF872
:103B70001822002384F8682084F869302049204600
:103B800000F0E0F802AAC02302F8013D362101232B
:103B90002046FFF7EBFC052DD9D10122236884F8DC
:103BA0006B201B6B20460221984703B030BD204696
:103BB000154900F0C7F80222012384F8682084F830
:103BC00069300F49204600F0BDF8C0E78023A3818B
:103BD00063810E49204600F0B5F80222032384F8E1
:103BE000682084F869300649204600F0ABF8022DC1
:103BF000C8D0042DC6D0A8E7D89B0000B89B000011
:103C0000149C0000A89B0000C89B0000389B00008B
:103C1000084A10B4002908BF11462124202280F848
:103C2000604080F86120416690F86A205DF8044B9E
:103C3000FFF738BB0048E801F8B5B0F85C70B0F8A1
:103C40005E40BDF81850394489B20B44224494B206
:103C50005F1E064647EA014725442A21FFF730FC4C
:103C6000013D39463046FFF733FE45EA044430460D
:103C70002B21FFF725FC21463046FFF729FE304671
:103C80002C21BDE8F840FFF71BBC00BF00B501F0D8
:103C9000030183B00023022901768DF8073025D077
:103CA000032921D0012913D0C02190F8682090F871
:103CB00069308DF80710A0F85C20A0F85E30012371
:103CC0000DF107023621FFF751FC03B05DF804FB4C
:103CD000A02190F8682090F869308DF80710A0F8BE
:103CE0005E20A0F85C30EAE76021F2E790F86820F7
:103CF00090F86930A0F85C20A0F85E30DFE700BFE4
:103D0000F0B587B09DF930409DF934709DF9386069
:103D10009DF93C5000949DF940400494019702960F
:103D200003950446FFF758FA054B2360204600230D
:103D300084F8683084F8693084F86A3007B0F0BDE0
:103D4000489C00002DE9F84381464B1C91F8008007
:103D5000002615E05F78197807F07F052B46FFF7FE
:103D6000B7FC631917F0800F03F1010707D0605DFE
:103D7000FF2808BF4FF4FA7001F00CF93B460136FA
:103D80009C1C464522464846E4D1BDE8F88300BF66
:103D900038B503680D461B6D0021044698472DB1C8
:103DA00029462046BDE83840FFF7CCBF38BD00BFEC
:103DB00007EE901AF8EEE76AB6EE087A26EE877AF2
:103DC0009FED0F6AC7EE067AFDEEE77A17EE903A9E
:103DD000834212DCF7EE047A66EEA76AB7EE007A49
:103DE000C6EE867A77EE877AFDEEE77A17EE903A9E
:103DF0009842CCBF0020012070470020704700BFD0
:103E000000004842643107EE901AF8EEE77AF6EEC9
:103E1000086A67EEA66A9FED0F6A86EE867ABDEEA7
:103E2000C77A17EE103A834212DCB7EE047A67EED7
:103E3000877AF7EE006A87EE867A77EE267AFDEECD
:103E4000E77A17EE903A9842CCBF002001207047E5
:103E50000020704700004842643907EE901AF8EEDF
:103E6000E77AF6EE086A67EEA66A9FED0F6A86EEBD
:103E7000867ABDEEC77A17EE103A834212DCB7EEAF
:103E8000047A67EE877AF7EE006A87EE867A77EE35
:103E9000267AFDEEE77A17EE903A9842CCBF0020E2
:103EA00001207047002070470000484210B54D4A7D
:103EB0004D4B4E4C12781E221A70607801F056F865
:103EC000A3680133A3602379642B84BF0623237086
:103ED0002378023B042B09D8DFE803F040471C5B42
:103EE00003000122052384F8A0212370E3781BB38B
:103EF00018BBA3783D4A002B5CD13D4A3D4B2021A5
:103F000011601B6813F0050F16D13B4B40F20312F2
:103F10001A6010BD002840D12379DBB25A1CD2B2FE
:103F20000233227104EB8303A2685A600323A0606A
:103F30002370E378002BDCD110BDA3782B4A002B33
:103F400032D12E4A2B4B202111601B6813F0050F34
:103F5000F2D1294B4FF480721A6010BDA8B9A26843
:103F6000224B632A2CD89860E3E70128BED123793D
:103F7000DBB25A1CD2B20233227104EB8303A26873
:103F80005A6000220423A2602370E378002BD4D16E
:103F900010BD0028F9D1A060CBE7A368134A642BB9
:103FA000F3D905231370F0E790780021BDE81040A5
:103FB00000F0D6BF90780121BDE8104000F0D0BFDE
:103FC00083F8A00118711A79D2B2511CC9B2023219
:103FD000197103EB820299685160032298601A708C
:103FE000A7E700BF05200640072006409C12FF1FE0
:103FF00084F00F4094F00F4014B0044088F00F405C
:10400000024BC9B200225970DA7070479C12FF1F30
:10401000F0B572B61849DFF884C00B681748184C21
:10402000184ADFF87CE0184E184D194F43F004038E
:104030000B6007238CF800300123037000212370EC
:104040001E238EF800101370317010262E70114C44
:104050003970032646714FF400550530256000780D
:10406000137062B60C4B02221A7019715878BDE8B1
:10407000F04000F089BF00BF3480044000200640BB
:10408000012006400720064008200640092006407F
:104090000420064004E100E09C12FF1F0A200640B5
:1040A00006200640024B0221002219701A71704747
:1040B0009C12FF1F30B44C69052C2FDD0B69194A87
:1040C0009FED196A194D03EB84040C3313ED027A4A
:1040D000D3ED007AB8EE477AF8EE677A67EE066AB3
:1040E0000020F4EEE67AF1EE10FA08D467EE867A54
:1040F000B4EEE77AF1EE10FA4CBF0220012004334F
:1041000005FB02F2A34282EA0002DFD12020FF2356
:10411000C8608A6001200B7030BC7047002030BC42
:10412000704700BFC59D1C81CDCC4C3F9301000161
:1041300070B5344A0A61A2F10C052C794C6195F8EE
:10414000A04112F80C2C8C61052A01D0002070BD12
:1041500006460C4600F012FA08B1012070BD214657
:10416000304600F0AFFC0028F7D12146304600F081
:104170003FFC0028F1D12146304600F0ABF9002881
:10418000EBD12146304600F0EBFA0028E5D121467C
:10419000304600F047FB0028DFD12146304600F0D2
:1041A0004FFA0028D9D12146304600F041F90028C5
:1041B000D3D12146304600F0C9F80028CDD12146A0
:1041C000304600F0B3FB0028C7D12146304600F04E
:1041D000DBFC0028C1D12146304600F015F800284C
:1041E000BBD12146304600F06BF80028B5D12146FE
:1041F0003046FFF75FFF0028AFD102222A702871F6
:1042000070BD00BFA812FF1F2DE9F041DFF8AC80A0
:1042100098F80430572B02D80020BDE8F0810B69D4
:104220000D46586842F26021FFF7ECFD0028F3D0FC
:104230002B6941F294119868FFF70EFE0028EBD02D
:1042400098F80430212B36DD1E261D24002709E0B6
:1042500043F0010798F804300234043BA34206F10E
:1042600002061DDD2B694FF4FA7153F82400FFF7A5
:10427000C9FD4FF416710028CED02B6953F82600E3
:10428000FFF7EAFD7B000028E2D12B6940F2A46130
:1042900053F82600FFF7E0FD08B17F00DAE7344667
:1042A000013C6410292CEC60B6DD0923AF602B7053
:1042B0000120BDE8F0810E23EB60ADE79C12FF1FEB
:1042C000F8B5214B1B79202B01D00020F8BD0B69DC
:1042D0000C4658684FF49671FFF794FD0028F4D00F
:1042E000236940F2EE219868FFF7B6FD0028ECD074
:1042F0000C25002604E043F0010608357C2D1BD078
:1043000023694FF496715859FFF77CFD2F1D4FF428
:10431000E1610028D9D02369D859FFF79DFD7300CA
:104320000028E8D1236940F2EE21D859FFF794FD27
:104330000028CAD07600E0E70E220F23A660E260D4
:1043400023700120F8BD00BF9C12FF1FF8B5374D48
:104350002B79222B0C463AD023694FF4FA51586836
:10436000FFF750FD10B12B79202B01D80020F8BDAC
:1043700023694FF47A619868FFF76EFD0028F5D045
:1043800010260325002706E043F001070235232D00
:1043900006F1080639D023694FF4167153F8250049
:1043A000FFF730FD4FF4C8610028DFD0236998592A
:1043B000FFF752FD7B000028E6D1236940F2262159
:1043C0009859FFF749FD0028D0D07F00DEE70B6940
:1043D0004FF416715868FFF715FD0028BCD02B79F3
:1043E000226903F18043013B4FF4167152F8230018
:1043F000FFF708FD0028AFD000214FF0FF32062361
:10440000E160A26023700120F8BD23694FF41671AA
:10441000D3F88C00FFF7F6FC0028A7D01022062363
:10442000A760E26023700120F8BD00BF9C12FF1F4F
:10443000F8B5274B1B79382B01D80020F8BD0B6944
:104440000C4658684FF4FA51FFF7DCFC0028F4D012
:1044500023694FF47A619868FFF7FEFC0028ECD0DE
:1044600010260325002706E043F0010702353B2D07
:1044700006F108061BD023694FF4167153F8250086
:10448000FFF7C0FC4FF4C8610028D6D023699859C3
:10449000FFF7E2FC7B000028E6D1236940F22621E9
:1044A0009859FFF7D9FC0028C7D07F00DEE72369C1
:1044B0004FF41671D3F8EC00FFF7A4FC0028BCD031
:1044C0001C220A23A760E26023700120F8BD00BF10
:1044D0009C12FF1F2DE9F041DFF89C8098F8043012
:1044E000212B02D80020BDE8F0810B690E465868E8
:1044F0004FF4AF71FFF786FC0028F3D098F8043032
:10450000032B34DD0324022500270FE043F00107CD
:1045100033694FF4AF7153F82400FFF79DFC023567
:10452000D0B198F804300234A34214DD336940F26C
:104530009E7153F82500FFF765FC7B000028E5D14C
:10454000336940F2EE2153F82500FFF75BFC0028A9
:10455000C8D07F00DCE72C46013C64100F2CF460CF
:1045600005DD0C23B76033700120BDE8F081002029
:10457000F060BDE8F08100BF9C12FF1FF8B50D464A
:1045800042F228312B695868FFF73CFC30B12B4CC4
:104590002379042B31D02379432B01D80020F8BD97
:1045A0002B6941F294119868FFF756FC0028F5D06A
:1045B0000C24002605E043F001060834B4F5867F9C
:1045C00034D02B694FF40C711859FFF71BFC271DD1
:1045D00040F29A610028E1D02B69D859FFF73CFCE2
:1045E00073000028E7D12B694FF40C71D859FFF7FD
:1045F00033FC0028D2D07600DFE72B6940F6CA01F1
:104600009868FFF729FC0028C5D02B694FF40C717E
:10461000D868FFF7F7FB0028BDD000214FF0FF322C
:104620000323E960AA602B700120F8BD2022032338
:10463000AE60EA602B700120F8BD00BF9C12FF1F26
:104640002DE9F0410D4640F6AE512B695868FFF751
:10465000D9FB10B90020BDE8F0812B6940F2D6618A
:104660009868FFF7CFFB0028F4D00C240026002721
:1046700006E042F001061F460834B4F5C67F21D09B
:104680002B694FF4FB711859FFF7BCFB04F10408C8
:1046900040F2DC410028DDD02B6953F80800FFF719
:1046A000DBFBB21947EB07030028E2D12B694FF47B
:1046B000C87153F80800FFF7CFFB0028CAD0B6191D
:1046C0007F41D9E705223023AE606F602A70EB602E
:1046D0000120BDE8F08100BF2DE9F0414869146870
:1046E000844221DA15460A691E4604F0010352F895
:1046F0002480069A002B14BF64246FF063041444D2
:104700002146404683F00107FFF752FB98B1012292
:10471000336801339A420ADC002333602B6801338B
:1047200038462B60BDE8F0810120BDE8F0813360A0
:104730003846BDE8F081069B1C4421464046FFF701
:1047400037FB08B10222E3E7069B40461919FFF741
:104750002FFB08B10322DBE74FF0FF30BDE8F0810B
:104760002DE9F0472E4E337984B0002401220C2B22
:104770000294039203D8002004B0BDE8F08740F211
:10478000793702AB03AA00970D460446FFF7A4FF52
:104790000028F0D1009702AB03AA29462046FFF774
:1047A0009BFF0128E7D1009702AB03AA29462046C8
:1047B000FFF792FF0028DED13279039B9A428046B0
:1047C00082460DDC25E0B9F1000FD4D10128D2D109
:1047D0004FEA48083279039B9A420AF1010A18DD30
:1047E00002AB03AA294600972046FFF775FF009702
:1047F000814602AB03AA29462046FFF76DFFB9F1B7
:10480000010FE0D14FEA48080028B4D148F0010870
:10481000E0E70120C5F80CA0C5F808802870ABE7D8
:104820009C12FF1F2DE9F0474B69002284B0934290
:1048300002920ADD0B6905460C46586840F66A216B
:1048400002230393FFF7DEFA18B9002004B0BDE895
:10485000F087039B2269591C039152F8230040F210
:104860007931FFF7F9FA0028EFD04FF4DE7602AB8A
:1048700003AA009621462846FFF72EFF0746002888
:10488000E3D1009602AB03AA21462846FFF724FF96
:104890000128DAD1039A63699A42B84621DA02AB59
:1048A00003AA214600962846FFF716FFB8F1030F2A
:1048B0008146009602AB03AA2146284620D0FFF786
:1048C0000BFF8246B9F1000F12D1BAF1010FBCD132
:1048D0007F0047F001076269039B9A4208F10108D3
:1048E000DDDC0223C4F80C80A76023700120ADE753
:1048F000B9F1010FA9D1BAF1000FA6D17F00EAE703
:10490000FFF7EAFE8145A0D102AB03AA214600963B
:104910002846FFF7E1FE0096824602AB03AA214635
:104920002846FFF7D9FE5045CCD08EE7F8B50D46A6
:1049300041F288312B695868FFF764FA30B12B4C8B
:104940002379042B31D02379432B01D80020F8BDE3
:104950002B6941F288319868FFF77EFA0028F5D07C
:104960000C24002605E043F001060834B4F5867FE8
:1049700034D02B694FF40C711859FFF743FA271DF7
:104980004FF4C8610028E1D02B69D859FFF764FAC9
:1049900073000028E7D12B694FF40C71D859FFF749
:1049A0005BFA0028D2D07600DFE72B6940F6CA0117
:1049B0009868FFF751FA0028C5D02B694FF40C71A5
:1049C000D868FFF71FFA0028BDD000214FF0FF3252
:1049D0000723E960AA602B700120F8BD202207237D
:1049E000AE60EA602B700120F8BD00BF9C12FF1F73
:1049F0002DE9F041324E3379192B15D90B691A681C
:104A0000B2F5487F09D200204FF0FF320B23C86077
:104A10008A600B700120BDE8F0810D46586840F6B1
:104A2000AC51FFF7EFF910B90020BDE8F0812B6918
:104A300040F6AC519868FFF7E5F90028F4D03379D7
:104A4000042B38DD042403274FF0000807E043F06F
:104A50000108337902349C4207F102071EDA2B6900
:104A600040F2B63153F82700FFF7F6F94FF416611C
:104A7000A8B12B6953F82400FFF7C4F94FEA4803A3
:104A80000028E4D12B694FF42F7153F82400FFF76D
:104A9000B9F90028C8D04FEA4808DAE73C46013C9B
:104AA00064100B2CEC6006DD0B23C5F808802B701E
:104AB0000120BDE8F0810020E860BDE8F08100BF82
:104AC0009C12FF1F2DE9F041DFF8B88098F8043000
:104AD000192B15D90B691A68B2F5FA7F09D2002093
:104AE0004FF0FF320B23C8608A600B700120BDE8D5
:104AF000F0810D4658684FF41661FFF783F910B93D
:104B00000020BDE8F08198F80430032B35DD032444
:104B10000226002708E043F0010798F80430023429
:104B20009C4206F102061CDA2B694FF4167153F809
:104B30002600FFF791F94FF4966198B12B6953F86D
:104B40002400FFF75FF97B000028E4D12B694FF4C4
:104B5000167153F82400FFF755F90028D0D07F00D4
:104B6000DBE73446013C64100B2CEC6005DD0423CC
:104B7000AF602B700120BDE8F0810020E860BDE847
:104B8000F08100BF9C12FF1FF8B52F4B1B79452BFE
:104B900001D80020F8BD0B690C46586840F2EE21A0
:104BA000FFF730F90028F4D0236940F2EE2198682D
:104BB000FFF752F90028ECD0236940F62231D8687B
:104BC000FFF720F90028E4D0236940F62231186964
:104BD000FFF742F90028DCD018260525002706E05B
:104BE00043F001070235452D06F108061BD0236965
:104BF00040F2EE2153F82500FFF704F940F6660174
:104C00000028C6D023699859FFF726F97B000028B1
:104C1000E6D1236940F2EE219859FFF71DF90028EB
:104C2000B7D07F00DEE7236940F2EE21D3F814010C
:104C3000FFF7E8F80028ACD020220823A760E26044
:104C400023700120F8BD00BF9C12FF1F844641EA7B
:104C5000000313F003036DD1403A41D351F8043BF4
:104C600040F8043B51F8043B40F8043B51F8043B46
:104C700040F8043B51F8043B40F8043B51F8043B36
:104C800040F8043B51F8043B40F8043B51F8043B26
:104C900040F8043B51F8043B40F8043B51F8043B16
:104CA00040F8043B51F8043B40F8043B51F8043B06
:104CB00040F8043B51F8043B40F8043B51F8043BF6
:104CC00040F8043B51F8043B40F8043B51F8043BE6
:104CD00040F8043B51F8043B40F8043B403ABDD255
:104CE000303211D351F8043B40F8043B51F8043BF7
:104CF00040F8043B51F8043B40F8043B51F8043BB6
:104D000040F8043B103AEDD20C3205D351F8043B85
:104D100040F8043B043AF9D2043208D0D2071CBF51
:104D200011F8013B00F8013B01D30B88038060467A
:104D3000704700BF082A13D38B078DD010F00303F0
:104D40008AD0C3F10403D21ADB071CBF11F8013B60
:104D500000F8013B80D331F8023B20F8023B7BE7AF
:104D6000043AD9D3013A11F8013B00F8013BF9D2DA
:104D70000B7803704B7843708B7883706046704774
:104D800008B5104C08E0236859050DD423681A05AE
:104D90000FD42368DB0411D423685803F3D500F043
:104DA000DBFA23685905F1D500F00EF823681A05DF
:104DB000EFD500F009F82368DB04EDD500F004F826
:104DC000EAE700BF3480044008B5FFF7D9FF00BF11
:104DD000014B10221A80704700200540704700BF29
:104DE000094908B50B6830B16A461844A2F500526B
:104DF000904202D20860184608BD01F035FC0C2331
:104E000003604FF0FF3008BD8C08FF1FFEE700BFB6
:104E1000084A1378802B01D0002070470649074BC1
:104E200007480860002119701378802BFCD00120FE
:104E3000704700BF03E007404480044001E00740A2
:104E400000002822094A1378012B01D00020704766
:104E500003F1804303F5FC23602119701378802B44
:104E6000FCD1034B034A1A600120704703E007405E
:104E7000448004400000060210B4114B53F8302067
:104E800092F8804234B1012379B182F880305DF824
:104E9000044B704703EBC0035B681A6851B922F0FA
:104EA00002021A605DF8044B704782F800315DF829
:104EB000044B704742F003021A605DF8044B7047E0
:104EC000A09C00001C4A02EBC00301295B6811D0C2
:104ED00004291BD052F83000002280F8802229B12A
:104EE000022920D0032922D01A6070474FF4807223
:104EF0001A60704752F830004FF4A27280F88012A6
:104F00001A601A6822F020021A60704752F83010B6
:104F10004FF4A272012081F880021A601A6842F0F0
:104F200020021A60704740F203121A6070474FF473
:104F300081721A60704700BFA09C000030B4054B1E
:104F4000054D064C002210211A602A60206019606D
:104F500030BC704714D0034004D0034000D003405D
:104F60003F2801D8FFF788BF704700BF3F2806D809
:104F7000044B53F8303093F80002C0B27047002061
:104F8000704700BFA09C00003F2801D8FFF79ABFE0
:104F9000704700BF2DE9F843054672B6224F234BF8
:104FA000234A1B683C68126862B6520102D5322B54
:104FB00088BF0134B5B3C3F52F3303F21F331D4E41
:104FC000DFF86890DFF868809B084FF47A72A6FBE0
:104FD000031302FB04F404EB930472B6D9F8001037
:104FE0003A68D8F800E062B6C1F52F3303F21F33F8
:104FF0009B08A6FB03031EF0806FC4EB93034FF4E2
:105000007A7002D0322988BF013200FB0233B3F537
:105010007A7F04D3013D05D004F57A74DDE701F011
:10502000D3F9DAE7BDE8F8834014FF1F18E000E089
:1050300004ED00E0176CC116F8B54E4B4E48DFF892
:105040005CC14E4C4E49DFF858E14E4E4E4D4F4F2D
:105050004FF000621A604FF080521A604FF0005219
:105060001A604FF080421A604FF000421A6000222E
:10507000026028234EF6FF70CCF80000CEF8003016
:1050800023600EF5012E0B6033602B6006F50026C1
:105090003B6005F50025A36207F500278B6204F548
:1050A000012401F5012106F6E87605F6E87507F515
:1050B0007F6710310EF1100E203433602B60CEF874
:1050C00000303B600B602360314CBB618B61092178
:1050D0002160A7F5002704F58054203F08343A608A
:1050E0002060BB60E36047F8041C04F5FD2407F56D
:1050F000FE27043704F2FC7422603860A360FB6072
:1051000044F8041C083404F6FC74C7F8FC2F206033
:10511000A4F5E124A4F2DC7433602B60C7F8F81F17
:1051200021681C4841F40071216001681A4C0EF599
:105130007F4E0EF1E80E07F5883706F5803605F547
:10514000803541F000710160CEF8002047F6FF7114
:105150000822396033602B60226001F0ABF919201E
:10516000FFF718FF00F05EFE40F21310BDE8F840B4
:10517000FFF710BF04E100E0048003401480034007
:105180001C800340248003402C8003403480034073
:10519000008003400480044000900C4008800340DD
:1051A0000C800340431E032B14D872B60A4951F8F1
:1051B000230068B170B4094C058834F813204668A0
:1051C00041F82360521B24F8132062B670BC70476C
:1051D00062B67047002070479C14FF1FA415FF1F84
:1051E000013803280BD872B6074B53F8203043B16F
:1051F00000205B680130002BFBD162B670470020B5
:1052000070471846F9E700BFF014FF1F30B472B6BC
:105210002B4A13781D0706D52A4B196A002936D068
:10522000996A002941D053781C0706D5254B196C83
:1052300000293ED0996C002939D09378190705D5FB
:10524000204B196E002936D0996E89B1D3781B078F
:1052500007D51C4BD3F880207AB3D3F888201121CE
:105260003AB162B6184B00221A7030BC00F062BE30
:105270000D21154C154D227843F8315003EBC10335
:105280000830013A5860227062B630BC7047042280
:105290000D4C0F4D217843F8325003EBC203083018
:1052A0004A1E5860227062B6EFE70521E1E7092146
:1052B000DFE70822ECE70C22EAE71022E8E700BF6C
:1052C000CC9E00000000FF1F1915FF1FC800400002
:1052D00088004000431E032B1DD81B4A400140F0AC
:1052E000100030B4104472B6184CE25C032A1BD88C
:1052F000DFE802F00212151703220D88E25410F0C5
:10530000080F14BFC823882343EA0543083103600C
:10531000416062B630BC704708300222EDE70522DA
:10532000EBE708300422E8E7094A52F8230038B1D5
:10533000084A52F82300416042F8231062B6E9E7B8
:1053400042F82310034AF7E70000FF1F2815FF1F4C
:10535000F014FF1F0015FF1F2DE9F04FDFF818B301
:10536000DFF818A387B044E0AE4F4FEA930807EB8D
:10537000C809013ED9F8042003F00803F6B2A2F1EF
:10538000080003F0FF04002B40F0048157F8383088
:105390001B0C99B222F8081C002B00F0F280A24BE3
:1053A00022F8064C42F8044C53F82620002A00F05C
:1053B0006E819E4D55F8263058609D4C45F826006C
:1053C00034F81630194424F8161000F093FD002824
:1053D00000F05681974A984B19F0080F00F1080029
:1053E00018BF1346C9F8040047F8383008238BF873
:1053F00000309BF80040E4B261071BD58F4B1B784F
:10540000ABB18F490A7802F0FF032AB1013BDBB24E
:105410000B70002B00F0EF848A490A7802F0FF033A
:105420002AB1013BDBB20B70002B00F0F7800423A4
:105430008BF8003004F0080303F0FF02002B00F0AB
:10544000D6809AF80030DBB21E098DD19C08DFF8B7
:10545000D49159F8342009EBC401C2F38302013A14
:1054600049680C2A7ED8DFE802F081817D7D7D7D50
:105470007D7D477D7D7D07000868734D4A68734FC9
:10548000734E286081B240F281606A4B6A604FF0CF
:10549000010E0022814249F834303A60C9F81020E8
:1054A000C9F8182086F800E05E4C00F2F480B1F5EF
:1054B000D06F80F07883B1F5817F00F0628300F2D5
:1054C0008782802900F0EC82822940F01E83A9881F
:1054D00001F07F01042900F218835E485E4C8900C8
:1054E0000844227062700278930740F1798384F84F
:1054F00000E04FF0020ED8E2544F3A6842B3574BE7
:10550000534E5749188834780D784028864645F020
:10551000020828BF4FF0400E002C84F001043470C4
:10552000CEEB00000CBF8824C82409EBC80680B26B
:1055300085F0010544EA0E447260188049F838404D
:1055400072440D7018B9BEF1400F18BF00223A60C6
:105550003D4B1A88B2F5A06F04D100219A7859709A
:10556000404B1A70404A012313703FE7364A1588B2
:1055700042F22100854200F0FF812E4A49F8342092
:10558000F0E72C4A2C4B19F0080F18BF134647F8C8
:1055900038302BE700F0CEFC344A354952F826303B
:1055A000002B00F0B68158688C5D42F8260003F1AC
:1055B0000802C9F80420032C05D8DFE804F0120F14
:1055C000150204228A551A8819F0080F0CBF882387
:1055D000C82343EA024347F8383007E702228A55D6
:1055E000F1E703228A55EEE705228A55EBE7E0074B
:1055F00000F11A82210600F14982A20706D51D4A50
:105600001D4913780220DBB213700870E30602D53F
:10561000194B10221A7007B0BDE8F08F00F0F6FDAC
:1056200005E700BF0000FF1F9C14FF1F4814FF1F69
:10563000A415FF1FC8004000880040002415FF1F6C
:10564000AD14FF1F2C15FF1F1015FF1F4414FF1F63
:10565000AC14FF1FC02007401C15FF1F5814FF1F6C
:105660001815FF1F9820074094200740F014FF1FD3
:105670002815FF1F88200740802007409020074002
:10568000AB4A47F83800137801331370AEE643F89D
:105690002600A84D91E642F22100814200F03581BA
:1056A00000F2AF81B1F5086F00F01B82B1F5106F09
:1056B00040F02B82226AA049A8780870120600F1F7
:1056C0004583D9F828209D49130600F13A83D9F87B
:1056D00030209A49150600F12F83D9F838209749D0
:1056E000140600F12483D9F840209449100600F1F3
:1056F0001983D9F848209149120600F10E83D9F890
:1057000050208E49130600F10383D9F858208B49A5
:10571000150600F1F882D9F860208849140600F1D6
:105720002983D9F868208549100600F11E83D9F82D
:1057300070208249120600F11383D9F878207F493E
:10574000130600F10883D9F880207C49150600F182
:105750001C83D9F888207949140600F11083D9F800
:1057600090207649100600F1C882D9F89820734934
:10577000120600F1BC827248724A73490190734864
:105780006C4D734C0497002305960295804617468E
:105790000E461D460394386828B1446800F0CAFBE1
:1057A0002046002CF9D100233B60029B30681A464A
:1057B000002342F8253028B1446800F0BBFB2046A6
:1057C000002CF9D100223260019A98F8003011467D
:1057D000002241F8042B039A0191023B4FF0000193
:1057E00022F81510032B09D8DFE813F04B01040051
:1057F0004B0104004FF0010388F800300135042DFF
:1058000007F1040706F1040608F10108C3D1514C61
:10581000514B2278464D049F059E002129701A7035
:10582000130700F14F8262784C49DFF810810A704B
:1058300010074FF00001C9F83010C9F8381000F116
:105840002B824749A2780A700021C9F85010C9F884
:1058500058101107DFF8E48000F1DC81E27841495B
:10586000364C0A7000211207C9F87010C9F8781078
:1058700000F1B98133780193002183F00102C9F866
:105880009010C9F898100020029080468446044683
:1058900035490D7845F0020E09EBCE030393019BC9
:1058A000002B039B5C600CBF8824C82444EA0803D7
:1058B00085F0010449F83E3032700C70DFF87CE06E
:1058C0002A4BDFF8A480002840F02681BCF1400F6D
:1058D0001BD144F0020C09EBCC03029CDFF85CE026
:1058E0005C60002A40F02E81020442F088029DF89C
:1058F00004304EF83C20044433700D702346402899
:1059000003D100201A4A3B6010801A4A0123137009
:1059100028E68B5D032B00F22D8101A252F823F0C3
:10592000ED530000ED530000775A00007D5A00004F
:105930001915FF1F4814FF1F2415FF1F0000FF1F2C
:105940000015FF1F9C14FF1FF014FF1F2815FF1FD9
:10595000A415FF1FCC9E0000C4200740C8200740AC
:10596000CC200740D02007401815FF1FAC14FF1FA4
:105970005814FF1F94200740928892B9B14A0D78BD
:105980004878157050708D78C8789570D070106810
:105990000D79157186284D7989795571917100F0CD
:1059A000A580A949A94E0A78307882F0010500281F
:1059B00042F002020D700CBF8821C82149F8321054
:1059C00009EBC20280F00100002130705160D4E583
:1059D00040F20232914240F08D80A98801F07F01AF
:1059E000042900F292806A88002A40F08E8098484C
:1059F000CDF804E089000844017841F0020101700B
:105A000041E742F2212081427BD1A988002940F060
:105A1000E480904B904A9148AC781D681560CDF8B1
:105A200004E00A4604702EE78D4B8E4886491A61C1
:105A30004FF0020E80F800E0854F0A708A49196025
:105A400099608A4E8A4D8B4C9A610D213970FF21E5
:105A50003170DFF840E229702270874D874A8EF856
:105A600000109F27012406F8047C5D600470DA6052
:105A700007B0BDE8F08F00238B55B7E401238B55A9
:105A8000B4E44FF0000388F80030B7E67049784B73
:105A900080220D2008701A70A2077FF5B7ADAEE521
:105AA000774C4FF0020E22706270EA88724580F0E7
:105AB000A38165490D78402A944645F0020E28BF1F
:105AC0004FF0400C04EB0C0309EBCE0002930123D2
:105AD00044604FEA0C48CCEB020001930022C8243A
